{
  "_format": "hh-sol-artifact-1",
  "contractName": "Lottery",
  "sourceName": "contracts/Lottery.sol",
  "abi": [
    {
      "inputs": [
        {
          "internalType": "address",
          "name": "vrfCoordinatorV2",
          "type": "address"
        },
        {
          "internalType": "uint256",
          "name": "entranceFee",
          "type": "uint256"
        },
        {
          "internalType": "bytes32",
          "name": "gasLane",
          "type": "bytes32"
        },
        {
          "internalType": "uint64",
          "name": "subscriptionId",
          "type": "uint64"
        },
        {
          "internalType": "uint32",
          "name": "callbackGasLimit",
          "type": "uint32"
        },
        {
          "internalType": "uint256",
          "name": "interval",
          "type": "uint256"
        }
      ],
      "stateMutability": "nonpayable",
      "type": "constructor"
    },
    {
      "inputs": [],
      "name": "Lottery__NotEnoughFeeEntered",
      "type": "error"
    },
    {
      "inputs": [],
      "name": "Lottery__NotOpen",
      "type": "error"
    },
    {
      "inputs": [],
      "name": "Lottery__TransferFailed",
      "type": "error"
    },
    {
      "inputs": [
        {
          "internalType": "uint256",
          "name": "currentBalance",
          "type": "uint256"
        },
        {
          "internalType": "uint256",
          "name": "numberOfPlayers",
          "type": "uint256"
        },
        {
          "internalType": "uint256",
          "name": "lotteryState",
          "type": "uint256"
        }
      ],
      "name": "Lottery__UpkeepNotNeeded",
      "type": "error"
    },
    {
      "inputs": [
        {
          "internalType": "address",
          "name": "have",
          "type": "address"
        },
        {
          "internalType": "address",
          "name": "want",
          "type": "address"
        }
      ],
      "name": "OnlyCoordinatorCanFulfill",
      "type": "error"
    },
    {
      "anonymous": false,
      "inputs": [
        {
          "indexed": true,
          "internalType": "address",
          "name": "player",
          "type": "address"
        }
      ],
      "name": "LotteryEnter",
      "type": "event"
    },
    {
      "anonymous": false,
      "inputs": [
        {
          "indexed": true,
          "internalType": "uint256",
          "name": "requestId",
          "type": "uint256"
        }
      ],
      "name": "RequestedLotteryWinner",
      "type": "event"
    },
    {
      "anonymous": false,
      "inputs": [
        {
          "indexed": true,
          "internalType": "address",
          "name": "winner",
          "type": "address"
        }
      ],
      "name": "WinnerPicked",
      "type": "event"
    },
    {
      "inputs": [
        {
          "internalType": "bytes",
          "name": "",
          "type": "bytes"
        }
      ],
      "name": "checkUpkeep",
      "outputs": [
        {
          "internalType": "bool",
          "name": "upkeepNeeded",
          "type": "bool"
        },
        {
          "internalType": "bytes",
          "name": "",
          "type": "bytes"
        }
      ],
      "stateMutability": "nonpayable",
      "type": "function"
    },
    {
      "inputs": [],
      "name": "enterLotter",
      "outputs": [],
      "stateMutability": "payable",
      "type": "function"
    },
    {
      "inputs": [],
      "name": "getEntranceFee",
      "outputs": [
        {
          "internalType": "uint256",
          "name": "",
          "type": "uint256"
        }
      ],
      "stateMutability": "view",
      "type": "function"
    },
    {
      "inputs": [],
      "name": "getInterval",
      "outputs": [
        {
          "internalType": "uint256",
          "name": "",
          "type": "uint256"
        }
      ],
      "stateMutability": "view",
      "type": "function"
    },
    {
      "inputs": [],
      "name": "getLastTimeStamp",
      "outputs": [
        {
          "internalType": "uint256",
          "name": "",
          "type": "uint256"
        }
      ],
      "stateMutability": "view",
      "type": "function"
    },
    {
      "inputs": [],
      "name": "getLotteryState",
      "outputs": [
        {
          "internalType": "enum Lottery.LotteryState",
          "name": "",
          "type": "uint8"
        }
      ],
      "stateMutability": "view",
      "type": "function"
    },
    {
      "inputs": [],
      "name": "getNumWords",
      "outputs": [
        {
          "internalType": "uint256",
          "name": "",
          "type": "uint256"
        }
      ],
      "stateMutability": "pure",
      "type": "function"
    },
    {
      "inputs": [
        {
          "internalType": "uint256",
          "name": "index",
          "type": "uint256"
        }
      ],
      "name": "getPlayer",
      "outputs": [
        {
          "internalType": "address",
          "name": "",
          "type": "address"
        }
      ],
      "stateMutability": "view",
      "type": "function"
    },
    {
      "inputs": [],
      "name": "getRecentWinner",
      "outputs": [
        {
          "internalType": "address",
          "name": "",
          "type": "address"
        }
      ],
      "stateMutability": "view",
      "type": "function"
    },
    {
      "inputs": [
        {
          "internalType": "bytes",
          "name": "",
          "type": "bytes"
        }
      ],
      "name": "performUpkeep",
      "outputs": [],
      "stateMutability": "nonpayable",
      "type": "function"
    },
    {
      "inputs": [
        {
          "internalType": "uint256",
          "name": "requestId",
          "type": "uint256"
        },
        {
          "internalType": "uint256[]",
          "name": "randomWords",
          "type": "uint256[]"
        }
      ],
      "name": "rawFulfillRandomWords",
      "outputs": [],
      "stateMutability": "nonpayable",
      "type": "function"
    },
    {
      "inputs": [],
      "name": "requestRandomWinner",
      "outputs": [],
      "stateMutability": "nonpayable",
      "type": "function"
    }
  ],
  "bytecode": "0x6101606040523480156200001257600080fd5b50604051620017c7380380620017c78339818101604052810190620000389190620001ad565b858073ffffffffffffffffffffffffffffffffffffffff1660808173ffffffffffffffffffffffffffffffffffffffff1660601b81525050508460a081815250508573ffffffffffffffffffffffffffffffffffffffff1660c08173ffffffffffffffffffffffffffffffffffffffff1660601b815250508360e081815250508267ffffffffffffffff166101008167ffffffffffffffff1660c01b815250508163ffffffff166101208163ffffffff1660e01b815250506000600160146101000a81548160ff02191690836001811115620001195762000118620002b5565b5b0217905550426002819055508061014081815250505050505050506200036b565b6000815190506200014b81620002e9565b92915050565b600081519050620001628162000303565b92915050565b60008151905062000179816200031d565b92915050565b600081519050620001908162000337565b92915050565b600081519050620001a78162000351565b92915050565b60008060008060008060c08789031215620001cd57620001cc620002e4565b5b6000620001dd89828a016200013a565b9650506020620001f089828a0162000168565b95505060406200020389828a0162000151565b94505060606200021689828a0162000196565b93505060806200022989828a016200017f565b92505060a06200023c89828a0162000168565b9150509295509295509295565b6000620002568262000267565b9050919050565b6000819050919050565b600073ffffffffffffffffffffffffffffffffffffffff82169050919050565b6000819050919050565b600063ffffffff82169050919050565b600067ffffffffffffffff82169050919050565b7f4e487b7100000000000000000000000000000000000000000000000000000000600052602160045260246000fd5b600080fd5b620002f48162000249565b81146200030057600080fd5b50565b6200030e816200025d565b81146200031a57600080fd5b50565b620003288162000287565b81146200033457600080fd5b50565b620003428162000291565b81146200034e57600080fd5b50565b6200035c81620002a1565b81146200036857600080fd5b50565b60805160601c60a05160c05160601c60e0516101005160c01c6101205160e01c610140516113e0620003e7600039600081816106170152610685015260006104e9015260006104c6015260006104a5015260006104690152600081816102a001526106ab0152600081816102c6015261031a01526113e06000f3fe6080604052600436106100a75760003560e01c80636b68c03c116100645780636b68c03c146101965780636e04ff0d146101c157806391ad27b4146101ff578063b47809b61461022a578063c1c244e814610234578063e55ae4e81461025f576100a7565b806309bc33a7146100ac5780631fe543e3146100d75780634585e33b14610100578063473f1ddc14610129578063522a1f0b1461015457806353a2c19a1461016b575b600080fd5b3480156100b857600080fd5b506100c161029c565b6040516100ce9190610fe6565b60405180910390f35b3480156100e357600080fd5b506100fe60048036038101906100f99190610dbf565b6102c4565b005b34801561010c57600080fd5b5061012760048036038101906101229190610ccf565b610384565b005b34801561013557600080fd5b5061013e610388565b60405161014b9190610f04565b60405180910390f35b34801561016057600080fd5b506101696103b2565b005b34801561017757600080fd5b506101806105af565b60405161018d9190610fe6565b60405180910390f35b3480156101a257600080fd5b506101ab6105be565b6040516101b89190610fcb565b60405180910390f35b3480156101cd57600080fd5b506101e860048036038101906101e39190610d1c565b6105d5565b6040516101f6929190610f48565b60405180910390f35b34801561020b57600080fd5b50610214610681565b6040516102219190610fe6565b60405180910390f35b6102326106a9565b005b34801561024057600080fd5b50610249610818565b6040516102569190610fe6565b60405180910390f35b34801561026b57600080fd5b5061028660048036038101906102819190610d65565b610822565b6040516102939190610f04565b60405180910390f35b60007f0000000000000000000000000000000000000000000000000000000000000000905090565b7f000000000000000000000000000000000000000000000000000000000000000073ffffffffffffffffffffffffffffffffffffffff163373ffffffffffffffffffffffffffffffffffffffff161461037657337f00000000000000000000000000000000000000000000000000000000000000006040517f1cf993f400000000000000000000000000000000000000000000000000000000815260040161036d929190610f1f565b60405180910390fd5b6103808282610869565b5050565b5050565b6000600160009054906101000a900473ffffffffffffffffffffffffffffffffffffffff16905090565b60006103cc604051806020016040528060008152506105d5565b5090508061043b5747600080549050600160149054906101000a900460ff1660018111156103fd576103fc6112c0565b5b6040517f6e195f2500000000000000000000000000000000000000000000000000000000815260040161043293929190611001565b60405180910390fd5b60018060146101000a81548160ff021916908360018111156104605761045f6112c0565b5b021790555060007f000000000000000000000000000000000000000000000000000000000000000073ffffffffffffffffffffffffffffffffffffffff16635d3b1d307f00000000000000000000000000000000000000000000000000000000000000007f000000000000000000000000000000000000000000000000000000000000000060037f000000000000000000000000000000000000000000000000000000000000000060016040518663ffffffff1660e01b815260040161052a959493929190610f78565b602060405180830381600087803b15801561054457600080fd5b505af1158015610558573d6000803e3d6000fd5b505050506040513d601f19601f8201168201806040525081019061057c9190610d92565b9050807febf56642252004c18a776f30d528e7a0ce8c5db14b6596fb6550f630c8a24c6c60405160405180910390a25050565b6000600163ffffffff16905090565b6000600160149054906101000a900460ff16905090565b6000606060008060018111156105ee576105ed6112c0565b5b600160149054906101000a900460ff1660018111156106105761060f6112c0565b5b14905060007f00000000000000000000000000000000000000000000000000000000000000006002544261064491906110e1565b119050600080600080549050119050600080471190508380156106645750825b801561066d5750815b80156106765750805b955050505050915091565b60007f0000000000000000000000000000000000000000000000000000000000000000905090565b7f0000000000000000000000000000000000000000000000000000000000000000341015610703576040517fb684fd7e00000000000000000000000000000000000000000000000000000000815260040160405180910390fd5b60006001811115610717576107166112c0565b5b600160149054906101000a900460ff166001811115610739576107386112c0565b5b14610770576040517fe76be6fc00000000000000000000000000000000000000000000000000000000815260040160405180910390fd5b6000339080600181540180825580915050600190039060005260206000200160009091909190916101000a81548173ffffffffffffffffffffffffffffffffffffffff021916908373ffffffffffffffffffffffffffffffffffffffff1602179055503373ffffffffffffffffffffffffffffffffffffffff167f1d64fb5ba9f2548c5b98468d58f25b87b9e866afee0122e92d9fe722bf85076c60405160405180910390a2565b6000600254905090565b6000808281548110610837576108366112ef565b5b9060005260206000200160009054906101000a900473ffffffffffffffffffffffffffffffffffffffff169050919050565b6000808054905082600081518110610884576108836112ef565b5b60200260200101516108969190611231565b905060008082815481106108ad576108ac6112ef565b5b9060005260206000200160009054906101000a900473ffffffffffffffffffffffffffffffffffffffff16905080600160006101000a81548173ffffffffffffffffffffffffffffffffffffffff021916908373ffffffffffffffffffffffffffffffffffffffff16021790555060008173ffffffffffffffffffffffffffffffffffffffff164760405161094190610eef565b60006040518083038185875af1925050503d806000811461097e576040519150601f19603f3d011682016040523d82523d6000602084013e610983565b606091505b50509050600067ffffffffffffffff8111156109a2576109a161131e565b5b6040519080825280602002602001820160405280156109d05781602001602082028036833780820191505090505b50600090805190602001906109e6929190610a9a565b504260028190555080610a25576040517f1c94012000000000000000000000000000000000000000000000000000000000815260040160405180910390fd5b6000600160146101000a81548160ff02191690836001811115610a4b57610a4a6112c0565b5b02179055508173ffffffffffffffffffffffffffffffffffffffff167f5b690ec4a06fe979403046eaeea5b3ce38524683c3001f662c8b5a829632f7df60405160405180910390a25050505050565b828054828255906000526020600020908101928215610b13579160200282015b82811115610b125782518260006101000a81548173ffffffffffffffffffffffffffffffffffffffff021916908373ffffffffffffffffffffffffffffffffffffffff16021790555091602001919060010190610aba565b5b509050610b209190610b24565b5090565b5b80821115610b3d576000816000905550600101610b25565b5090565b6000610b54610b4f8461105d565b611038565b90508083825260208201905082856020860282011115610b7757610b76611357565b5b60005b85811015610ba75781610b8d8882610ca5565b845260208401935060208301925050600181019050610b7a565b5050509392505050565b6000610bc4610bbf84611089565b611038565b905082815260208101848484011115610be057610bdf61135c565b5b610beb8482856111be565b509392505050565b600082601f830112610c0857610c07611352565b5b8135610c18848260208601610b41565b91505092915050565b60008083601f840112610c3757610c36611352565b5b8235905067ffffffffffffffff811115610c5457610c5361134d565b5b602083019150836001820283011115610c7057610c6f611357565b5b9250929050565b600082601f830112610c8c57610c8b611352565b5b8135610c9c848260208601610bb1565b91505092915050565b600081359050610cb481611393565b92915050565b600081519050610cc981611393565b92915050565b60008060208385031215610ce657610ce5611366565b5b600083013567ffffffffffffffff811115610d0457610d03611361565b5b610d1085828601610c21565b92509250509250929050565b600060208284031215610d3257610d31611366565b5b600082013567ffffffffffffffff811115610d5057610d4f611361565b5b610d5c84828501610c77565b91505092915050565b600060208284031215610d7b57610d7a611366565b5b6000610d8984828501610ca5565b91505092915050565b600060208284031215610da857610da7611366565b5b6000610db684828501610cba565b91505092915050565b60008060408385031215610dd657610dd5611366565b5b6000610de485828601610ca5565b925050602083013567ffffffffffffffff811115610e0557610e04611361565b5b610e1185828601610bf3565b9150509250929050565b610e2481611115565b82525050565b610e3381611127565b82525050565b610e4281611133565b82525050565b6000610e53826110ba565b610e5d81856110c5565b9350610e6d8185602086016111cd565b610e768161136b565b840191505092915050565b610e8a816111ac565b82525050565b6000610e9d6000836110d6565b9150610ea88261137c565b600082019050919050565b610ebc81611150565b82525050565b610ecb8161117e565b82525050565b610eda81611188565b82525050565b610ee981611198565b82525050565b6000610efa82610e90565b9150819050919050565b6000602082019050610f196000830184610e1b565b92915050565b6000604082019050610f346000830185610e1b565b610f416020830184610e1b565b9392505050565b6000604082019050610f5d6000830185610e2a565b8181036020830152610f6f8184610e48565b90509392505050565b600060a082019050610f8d6000830188610e39565b610f9a6020830187610ee0565b610fa76040830186610eb3565b610fb46060830185610ed1565b610fc16080830184610ed1565b9695505050505050565b6000602082019050610fe06000830184610e81565b92915050565b6000602082019050610ffb6000830184610ec2565b92915050565b60006060820190506110166000830186610ec2565b6110236020830185610ec2565b6110306040830184610ec2565b949350505050565b6000611042611053565b905061104e8282611200565b919050565b6000604051905090565b600067ffffffffffffffff8211156110785761107761131e565b5b602082029050602081019050919050565b600067ffffffffffffffff8211156110a4576110a361131e565b5b6110ad8261136b565b9050602081019050919050565b600081519050919050565b600082825260208201905092915050565b600081905092915050565b60006110ec8261117e565b91506110f78361117e565b92508282101561110a57611109611262565b5b828203905092915050565b60006111208261115e565b9050919050565b60008115159050919050565b6000819050919050565b600081905061114b8261137f565b919050565b600061ffff82169050919050565b600073ffffffffffffffffffffffffffffffffffffffff82169050919050565b6000819050919050565b600063ffffffff82169050919050565b600067ffffffffffffffff82169050919050565b60006111b78261113d565b9050919050565b82818337600083830152505050565b60005b838110156111eb5780820151818401526020810190506111d0565b838111156111fa576000848401525b50505050565b6112098261136b565b810181811067ffffffffffffffff821117156112285761122761131e565b5b80604052505050565b600061123c8261117e565b91506112478361117e565b92508261125757611256611291565b5b828206905092915050565b7f4e487b7100000000000000000000000000000000000000000000000000000000600052601160045260246000fd5b7f4e487b7100000000000000000000000000000000000000000000000000000000600052601260045260246000fd5b7f4e487b7100000000000000000000000000000000000000000000000000000000600052602160045260246000fd5b7f4e487b7100000000000000000000000000000000000000000000000000000000600052603260045260246000fd5b7f4e487b7100000000000000000000000000000000000000000000000000000000600052604160045260246000fd5b600080fd5b600080fd5b600080fd5b600080fd5b600080fd5b600080fd5b6000601f19601f8301169050919050565b50565b600281106113905761138f6112c0565b5b50565b61139c8161117e565b81146113a757600080fd5b5056fea264697066735822122052545b7fa934d1bc04ffc85a3dc0b02ce9a236eeda3c0ce85fe413e85de4208a64736f6c63430008070033",
  "linkReferences": {},
  "deployedLinkReferences": {}
}