{
  "_format": "hh-sol-artifact-1",
  "contractName": "Lottery",
  "sourceName": "contracts/Lottery.sol",
  "abi": [
    {
      "inputs": [
        {
          "internalType": "address",
          "name": "vrfCoordinatorV2",
          "type": "address"
        },
        {
          "internalType": "uint256",
          "name": "entranceFee",
          "type": "uint256"
        },
        {
          "internalType": "bytes32",
          "name": "gasLane",
          "type": "bytes32"
        },
        {
          "internalType": "uint64",
          "name": "subscriptionId",
          "type": "uint64"
        },
        {
          "internalType": "uint32",
          "name": "callbackGasLimit",
          "type": "uint32"
        },
        {
          "internalType": "uint256",
          "name": "interval",
          "type": "uint256"
        }
      ],
      "stateMutability": "nonpayable",
      "type": "constructor"
    },
    {
      "inputs": [],
      "name": "Lottery__NotEnoughFeeForEntry",
      "type": "error"
    },
    {
      "inputs": [],
      "name": "Lottery__NotOpen",
      "type": "error"
    },
    {
      "inputs": [],
      "name": "Lottery__TransferFailed",
      "type": "error"
    },
    {
      "inputs": [
        {
          "internalType": "uint256",
          "name": "currentBalance",
          "type": "uint256"
        },
        {
          "internalType": "uint256",
          "name": "numberOfPlayers",
          "type": "uint256"
        },
        {
          "internalType": "uint256",
          "name": "lotteryState",
          "type": "uint256"
        }
      ],
      "name": "Lottery__UpkeepNotNeeded",
      "type": "error"
    },
    {
      "inputs": [
        {
          "internalType": "address",
          "name": "have",
          "type": "address"
        },
        {
          "internalType": "address",
          "name": "want",
          "type": "address"
        }
      ],
      "name": "OnlyCoordinatorCanFulfill",
      "type": "error"
    },
    {
      "anonymous": false,
      "inputs": [
        {
          "indexed": true,
          "internalType": "address",
          "name": "player",
          "type": "address"
        }
      ],
      "name": "LotteryEnter",
      "type": "event"
    },
    {
      "anonymous": false,
      "inputs": [
        {
          "indexed": true,
          "internalType": "uint256",
          "name": "requestId",
          "type": "uint256"
        }
      ],
      "name": "RequestedLotteryWinner",
      "type": "event"
    },
    {
      "anonymous": false,
      "inputs": [
        {
          "indexed": true,
          "internalType": "address",
          "name": "winner",
          "type": "address"
        }
      ],
      "name": "WinnerPicked",
      "type": "event"
    },
    {
      "inputs": [
        {
          "internalType": "bytes",
          "name": "",
          "type": "bytes"
        }
      ],
      "name": "checkUpkeep",
      "outputs": [
        {
          "internalType": "bool",
          "name": "upkeepNeeded",
          "type": "bool"
        },
        {
          "internalType": "bytes",
          "name": "",
          "type": "bytes"
        }
      ],
      "stateMutability": "nonpayable",
      "type": "function"
    },
    {
      "inputs": [],
      "name": "enterLottery",
      "outputs": [],
      "stateMutability": "payable",
      "type": "function"
    },
    {
      "inputs": [],
      "name": "getEntranceFee",
      "outputs": [
        {
          "internalType": "uint256",
          "name": "",
          "type": "uint256"
        }
      ],
      "stateMutability": "view",
      "type": "function"
    },
    {
      "inputs": [],
      "name": "getInterval",
      "outputs": [
        {
          "internalType": "uint256",
          "name": "",
          "type": "uint256"
        }
      ],
      "stateMutability": "view",
      "type": "function"
    },
    {
      "inputs": [],
      "name": "getLastTimeStamp",
      "outputs": [
        {
          "internalType": "uint256",
          "name": "",
          "type": "uint256"
        }
      ],
      "stateMutability": "view",
      "type": "function"
    },
    {
      "inputs": [],
      "name": "getLotteryState",
      "outputs": [
        {
          "internalType": "enum Lottery.LotteryState",
          "name": "",
          "type": "uint8"
        }
      ],
      "stateMutability": "view",
      "type": "function"
    },
    {
      "inputs": [],
      "name": "getNumWords",
      "outputs": [
        {
          "internalType": "uint256",
          "name": "",
          "type": "uint256"
        }
      ],
      "stateMutability": "pure",
      "type": "function"
    },
    {
      "inputs": [
        {
          "internalType": "uint256",
          "name": "index",
          "type": "uint256"
        }
      ],
      "name": "getPlayer",
      "outputs": [
        {
          "internalType": "address",
          "name": "",
          "type": "address"
        }
      ],
      "stateMutability": "view",
      "type": "function"
    },
    {
      "inputs": [],
      "name": "getRecentWinner",
      "outputs": [
        {
          "internalType": "address",
          "name": "",
          "type": "address"
        }
      ],
      "stateMutability": "view",
      "type": "function"
    },
    {
      "inputs": [
        {
          "internalType": "bytes",
          "name": "",
          "type": "bytes"
        }
      ],
      "name": "performUpkeep",
      "outputs": [],
      "stateMutability": "nonpayable",
      "type": "function"
    },
    {
      "inputs": [
        {
          "internalType": "uint256",
          "name": "requestId",
          "type": "uint256"
        },
        {
          "internalType": "uint256[]",
          "name": "randomWords",
          "type": "uint256[]"
        }
      ],
      "name": "rawFulfillRandomWords",
      "outputs": [],
      "stateMutability": "nonpayable",
      "type": "function"
    }
  ],
  "bytecode": "0x6101606040523480156200001257600080fd5b50604051620017a3380380620017a38339818101604052810190620000389190620001ad565b858073ffffffffffffffffffffffffffffffffffffffff1660808173ffffffffffffffffffffffffffffffffffffffff1660601b81525050508460a081815250508573ffffffffffffffffffffffffffffffffffffffff1660c08173ffffffffffffffffffffffffffffffffffffffff1660601b815250508360e081815250508267ffffffffffffffff166101008167ffffffffffffffff1660c01b815250508163ffffffff166101208163ffffffff1660e01b815250506000600160146101000a81548160ff02191690836001811115620001195762000118620002b5565b5b0217905550426002819055508061014081815250505050505050506200036b565b6000815190506200014b81620002e9565b92915050565b600081519050620001628162000303565b92915050565b60008151905062000179816200031d565b92915050565b600081519050620001908162000337565b92915050565b600081519050620001a78162000351565b92915050565b60008060008060008060c08789031215620001cd57620001cc620002e4565b5b6000620001dd89828a016200013a565b9650506020620001f089828a0162000168565b95505060406200020389828a0162000151565b94505060606200021689828a0162000196565b93505060806200022989828a016200017f565b92505060a06200023c89828a0162000168565b9150509295509295509295565b6000620002568262000267565b9050919050565b6000819050919050565b600073ffffffffffffffffffffffffffffffffffffffff82169050919050565b6000819050919050565b600063ffffffff82169050919050565b600067ffffffffffffffff82169050919050565b7f4e487b7100000000000000000000000000000000000000000000000000000000600052602160045260246000fd5b600080fd5b620002f48162000249565b81146200030057600080fd5b50565b6200030e816200025d565b81146200031a57600080fd5b50565b620003288162000287565b81146200033457600080fd5b50565b620003428162000291565b81146200034e57600080fd5b50565b6200035c81620002a1565b81146200036857600080fd5b50565b60805160601c60a05160c05160601c60e0516101005160c01c6101205160e01c610140516113bc620003e7600039600081816105f301526106610152600061049901526000610476015260006104550152600061041901526000818161027e01526106870152600081816102a401526102f801526113bc6000f3fe60806040526004361061009c5760003560e01c80636b68c03c116100645780636b68c03c146101745780636e04ff0d1461019f57806391ad27b4146101dd578063c1af578514610208578063c1c244e814610212578063e55ae4e81461023d5761009c565b806309bc33a7146100a15780631fe543e3146100cc5780634585e33b146100f5578063473f1ddc1461011e57806353a2c19a14610149575b600080fd5b3480156100ad57600080fd5b506100b661027a565b6040516100c39190610fc2565b60405180910390f35b3480156100d857600080fd5b506100f360048036038101906100ee9190610d9b565b6102a2565b005b34801561010157600080fd5b5061011c60048036038101906101179190610cab565b610362565b005b34801561012a57600080fd5b50610133610561565b6040516101409190610ee0565b60405180910390f35b34801561015557600080fd5b5061015e61058b565b60405161016b9190610fc2565b60405180910390f35b34801561018057600080fd5b5061018961059a565b6040516101969190610fa7565b60405180910390f35b3480156101ab57600080fd5b506101c660048036038101906101c19190610cf8565b6105b1565b6040516101d4929190610f24565b60405180910390f35b3480156101e957600080fd5b506101f261065d565b6040516101ff9190610fc2565b60405180910390f35b610210610685565b005b34801561021e57600080fd5b506102276107f4565b6040516102349190610fc2565b60405180910390f35b34801561024957600080fd5b50610264600480360381019061025f9190610d41565b6107fe565b6040516102719190610ee0565b60405180910390f35b60007f0000000000000000000000000000000000000000000000000000000000000000905090565b7f000000000000000000000000000000000000000000000000000000000000000073ffffffffffffffffffffffffffffffffffffffff163373ffffffffffffffffffffffffffffffffffffffff161461035457337f00000000000000000000000000000000000000000000000000000000000000006040517f1cf993f400000000000000000000000000000000000000000000000000000000815260040161034b929190610efb565b60405180910390fd5b61035e8282610845565b5050565b600061037c604051806020016040528060008152506105b1565b509050806103eb5747600080549050600160149054906101000a900460ff1660018111156103ad576103ac61129c565b5b6040517f6e195f250000000000000000000000000000000000000000000000000000000081526004016103e293929190610fdd565b60405180910390fd5b60018060146101000a81548160ff021916908360018111156104105761040f61129c565b5b021790555060007f000000000000000000000000000000000000000000000000000000000000000073ffffffffffffffffffffffffffffffffffffffff16635d3b1d307f00000000000000000000000000000000000000000000000000000000000000007f000000000000000000000000000000000000000000000000000000000000000060037f000000000000000000000000000000000000000000000000000000000000000060016040518663ffffffff1660e01b81526004016104da959493929190610f54565b602060405180830381600087803b1580156104f457600080fd5b505af1158015610508573d6000803e3d6000fd5b505050506040513d601f19601f8201168201806040525081019061052c9190610d6e565b9050807febf56642252004c18a776f30d528e7a0ce8c5db14b6596fb6550f630c8a24c6c60405160405180910390a250505050565b6000600160009054906101000a900473ffffffffffffffffffffffffffffffffffffffff16905090565b6000600163ffffffff16905090565b6000600160149054906101000a900460ff16905090565b6000606060008060018111156105ca576105c961129c565b5b600160149054906101000a900460ff1660018111156105ec576105eb61129c565b5b14905060007f00000000000000000000000000000000000000000000000000000000000000006002544261062091906110bd565b119050600080600080549050119050600080471190508380156106405750825b80156106495750815b80156106525750805b955050505050915091565b60007f0000000000000000000000000000000000000000000000000000000000000000905090565b7f00000000000000000000000000000000000000000000000000000000000000003410156106df576040517f8f9cd62700000000000000000000000000000000000000000000000000000000815260040160405180910390fd5b600060018111156106f3576106f261129c565b5b600160149054906101000a900460ff1660018111156107155761071461129c565b5b1461074c576040517fe76be6fc00000000000000000000000000000000000000000000000000000000815260040160405180910390fd5b6000339080600181540180825580915050600190039060005260206000200160009091909190916101000a81548173ffffffffffffffffffffffffffffffffffffffff021916908373ffffffffffffffffffffffffffffffffffffffff1602179055503373ffffffffffffffffffffffffffffffffffffffff167f1d64fb5ba9f2548c5b98468d58f25b87b9e866afee0122e92d9fe722bf85076c60405160405180910390a2565b6000600254905090565b6000808281548110610813576108126112cb565b5b9060005260206000200160009054906101000a900473ffffffffffffffffffffffffffffffffffffffff169050919050565b60008080549050826000815181106108605761085f6112cb565b5b6020026020010151610872919061120d565b90506000808281548110610889576108886112cb565b5b9060005260206000200160009054906101000a900473ffffffffffffffffffffffffffffffffffffffff16905080600160006101000a81548173ffffffffffffffffffffffffffffffffffffffff021916908373ffffffffffffffffffffffffffffffffffffffff16021790555060008173ffffffffffffffffffffffffffffffffffffffff164760405161091d90610ecb565b60006040518083038185875af1925050503d806000811461095a576040519150601f19603f3d011682016040523d82523d6000602084013e61095f565b606091505b50509050600067ffffffffffffffff81111561097e5761097d6112fa565b5b6040519080825280602002602001820160405280156109ac5781602001602082028036833780820191505090505b50600090805190602001906109c2929190610a76565b504260028190555080610a01576040517f1c94012000000000000000000000000000000000000000000000000000000000815260040160405180910390fd5b6000600160146101000a81548160ff02191690836001811115610a2757610a2661129c565b5b02179055508173ffffffffffffffffffffffffffffffffffffffff167f5b690ec4a06fe979403046eaeea5b3ce38524683c3001f662c8b5a829632f7df60405160405180910390a25050505050565b828054828255906000526020600020908101928215610aef579160200282015b82811115610aee5782518260006101000a81548173ffffffffffffffffffffffffffffffffffffffff021916908373ffffffffffffffffffffffffffffffffffffffff16021790555091602001919060010190610a96565b5b509050610afc9190610b00565b5090565b5b80821115610b19576000816000905550600101610b01565b5090565b6000610b30610b2b84611039565b611014565b90508083825260208201905082856020860282011115610b5357610b52611333565b5b60005b85811015610b835781610b698882610c81565b845260208401935060208301925050600181019050610b56565b5050509392505050565b6000610ba0610b9b84611065565b611014565b905082815260208101848484011115610bbc57610bbb611338565b5b610bc784828561119a565b509392505050565b600082601f830112610be457610be361132e565b5b8135610bf4848260208601610b1d565b91505092915050565b60008083601f840112610c1357610c1261132e565b5b8235905067ffffffffffffffff811115610c3057610c2f611329565b5b602083019150836001820283011115610c4c57610c4b611333565b5b9250929050565b600082601f830112610c6857610c6761132e565b5b8135610c78848260208601610b8d565b91505092915050565b600081359050610c908161136f565b92915050565b600081519050610ca58161136f565b92915050565b60008060208385031215610cc257610cc1611342565b5b600083013567ffffffffffffffff811115610ce057610cdf61133d565b5b610cec85828601610bfd565b92509250509250929050565b600060208284031215610d0e57610d0d611342565b5b600082013567ffffffffffffffff811115610d2c57610d2b61133d565b5b610d3884828501610c53565b91505092915050565b600060208284031215610d5757610d56611342565b5b6000610d6584828501610c81565b91505092915050565b600060208284031215610d8457610d83611342565b5b6000610d9284828501610c96565b91505092915050565b60008060408385031215610db257610db1611342565b5b6000610dc085828601610c81565b925050602083013567ffffffffffffffff811115610de157610de061133d565b5b610ded85828601610bcf565b9150509250929050565b610e00816110f1565b82525050565b610e0f81611103565b82525050565b610e1e8161110f565b82525050565b6000610e2f82611096565b610e3981856110a1565b9350610e498185602086016111a9565b610e5281611347565b840191505092915050565b610e6681611188565b82525050565b6000610e796000836110b2565b9150610e8482611358565b600082019050919050565b610e988161112c565b82525050565b610ea78161115a565b82525050565b610eb681611164565b82525050565b610ec581611174565b82525050565b6000610ed682610e6c565b9150819050919050565b6000602082019050610ef56000830184610df7565b92915050565b6000604082019050610f106000830185610df7565b610f1d6020830184610df7565b9392505050565b6000604082019050610f396000830185610e06565b8181036020830152610f4b8184610e24565b90509392505050565b600060a082019050610f696000830188610e15565b610f766020830187610ebc565b610f836040830186610e8f565b610f906060830185610ead565b610f9d6080830184610ead565b9695505050505050565b6000602082019050610fbc6000830184610e5d565b92915050565b6000602082019050610fd76000830184610e9e565b92915050565b6000606082019050610ff26000830186610e9e565b610fff6020830185610e9e565b61100c6040830184610e9e565b949350505050565b600061101e61102f565b905061102a82826111dc565b919050565b6000604051905090565b600067ffffffffffffffff821115611054576110536112fa565b5b602082029050602081019050919050565b600067ffffffffffffffff8211156110805761107f6112fa565b5b61108982611347565b9050602081019050919050565b600081519050919050565b600082825260208201905092915050565b600081905092915050565b60006110c88261115a565b91506110d38361115a565b9250828210156110e6576110e561123e565b5b828203905092915050565b60006110fc8261113a565b9050919050565b60008115159050919050565b6000819050919050565b60008190506111278261135b565b919050565b600061ffff82169050919050565b600073ffffffffffffffffffffffffffffffffffffffff82169050919050565b6000819050919050565b600063ffffffff82169050919050565b600067ffffffffffffffff82169050919050565b600061119382611119565b9050919050565b82818337600083830152505050565b60005b838110156111c75780820151818401526020810190506111ac565b838111156111d6576000848401525b50505050565b6111e582611347565b810181811067ffffffffffffffff82111715611204576112036112fa565b5b80604052505050565b60006112188261115a565b91506112238361115a565b9250826112335761123261126d565b5b828206905092915050565b7f4e487b7100000000000000000000000000000000000000000000000000000000600052601160045260246000fd5b7f4e487b7100000000000000000000000000000000000000000000000000000000600052601260045260246000fd5b7f4e487b7100000000000000000000000000000000000000000000000000000000600052602160045260246000fd5b7f4e487b7100000000000000000000000000000000000000000000000000000000600052603260045260246000fd5b7f4e487b7100000000000000000000000000000000000000000000000000000000600052604160045260246000fd5b600080fd5b600080fd5b600080fd5b600080fd5b600080fd5b600080fd5b6000601f19601f8301169050919050565b50565b6002811061136c5761136b61129c565b5b50565b6113788161115a565b811461138357600080fd5b5056fea26469706673582212205efb2905cf6a46d3fc3140001b810f059307a85efe8138da18f5a9d5edce516f64736f6c63430008070033",
  "linkReferences": {},
  "deployedLinkReferences": {}
}